{
  "contractName": "NFTCollection",
  "abi": [
    {
      "inputs": [
        {
          "internalType": "string",
          "name": "baseURI",
          "type": "string"
        },
        {
          "internalType": "string",
          "name": "name",
          "type": "string"
        },
        {
          "internalType": "string",
          "name": "symbol",
          "type": "string"
        },
        {
          "internalType": "string",
          "name": "__contractURI",
          "type": "string"
        },
        {
          "internalType": "uint256",
          "name": "max_supply",
          "type": "uint256"
        },
        {
          "internalType": "uint256",
          "name": "price",
          "type": "uint256"
        },
        {
          "internalType": "uint256",
          "name": "max_per_mint",
          "type": "uint256"
        }
      ],
      "stateMutability": "nonpayable",
      "type": "constructor"
    },
    {
      "anonymous": false,
      "inputs": [
        {
          "indexed": true,
          "internalType": "address",
          "name": "owner",
          "type": "address"
        },
        {
          "indexed": true,
          "internalType": "address",
          "name": "approved",
          "type": "address"
        },
        {
          "indexed": true,
          "internalType": "uint256",
          "name": "tokenId",
          "type": "uint256"
        }
      ],
      "name": "Approval",
      "type": "event"
    },
    {
      "anonymous": false,
      "inputs": [
        {
          "indexed": true,
          "internalType": "address",
          "name": "owner",
          "type": "address"
        },
        {
          "indexed": true,
          "internalType": "address",
          "name": "operator",
          "type": "address"
        },
        {
          "indexed": false,
          "internalType": "bool",
          "name": "approved",
          "type": "bool"
        }
      ],
      "name": "ApprovalForAll",
      "type": "event"
    },
    {
      "anonymous": false,
      "inputs": [
        {
          "indexed": true,
          "internalType": "address",
          "name": "previousOwner",
          "type": "address"
        },
        {
          "indexed": true,
          "internalType": "address",
          "name": "newOwner",
          "type": "address"
        }
      ],
      "name": "OwnershipTransferred",
      "type": "event"
    },
    {
      "anonymous": false,
      "inputs": [
        {
          "indexed": true,
          "internalType": "address",
          "name": "from",
          "type": "address"
        },
        {
          "indexed": true,
          "internalType": "address",
          "name": "to",
          "type": "address"
        },
        {
          "indexed": true,
          "internalType": "uint256",
          "name": "tokenId",
          "type": "uint256"
        }
      ],
      "name": "Transfer",
      "type": "event"
    },
    {
      "inputs": [],
      "name": "MAX_PER_MINT",
      "outputs": [
        {
          "internalType": "uint256",
          "name": "",
          "type": "uint256"
        }
      ],
      "stateMutability": "view",
      "type": "function",
      "constant": true
    },
    {
      "inputs": [],
      "name": "MAX_SUPPLY",
      "outputs": [
        {
          "internalType": "uint256",
          "name": "",
          "type": "uint256"
        }
      ],
      "stateMutability": "view",
      "type": "function",
      "constant": true
    },
    {
      "inputs": [],
      "name": "PRICE",
      "outputs": [
        {
          "internalType": "uint256",
          "name": "",
          "type": "uint256"
        }
      ],
      "stateMutability": "view",
      "type": "function",
      "constant": true
    },
    {
      "inputs": [
        {
          "internalType": "address",
          "name": "to",
          "type": "address"
        },
        {
          "internalType": "uint256",
          "name": "tokenId",
          "type": "uint256"
        }
      ],
      "name": "approve",
      "outputs": [],
      "stateMutability": "nonpayable",
      "type": "function"
    },
    {
      "inputs": [
        {
          "internalType": "address",
          "name": "owner",
          "type": "address"
        }
      ],
      "name": "balanceOf",
      "outputs": [
        {
          "internalType": "uint256",
          "name": "",
          "type": "uint256"
        }
      ],
      "stateMutability": "view",
      "type": "function",
      "constant": true
    },
    {
      "inputs": [],
      "name": "baseTokenURI",
      "outputs": [
        {
          "internalType": "string",
          "name": "",
          "type": "string"
        }
      ],
      "stateMutability": "view",
      "type": "function",
      "constant": true
    },
    {
      "inputs": [
        {
          "internalType": "uint256",
          "name": "tokenId",
          "type": "uint256"
        }
      ],
      "name": "getApproved",
      "outputs": [
        {
          "internalType": "address",
          "name": "",
          "type": "address"
        }
      ],
      "stateMutability": "view",
      "type": "function",
      "constant": true
    },
    {
      "inputs": [
        {
          "internalType": "address",
          "name": "owner",
          "type": "address"
        },
        {
          "internalType": "address",
          "name": "operator",
          "type": "address"
        }
      ],
      "name": "isApprovedForAll",
      "outputs": [
        {
          "internalType": "bool",
          "name": "",
          "type": "bool"
        }
      ],
      "stateMutability": "view",
      "type": "function",
      "constant": true
    },
    {
      "inputs": [],
      "name": "name",
      "outputs": [
        {
          "internalType": "string",
          "name": "",
          "type": "string"
        }
      ],
      "stateMutability": "view",
      "type": "function",
      "constant": true
    },
    {
      "inputs": [],
      "name": "owner",
      "outputs": [
        {
          "internalType": "address",
          "name": "",
          "type": "address"
        }
      ],
      "stateMutability": "view",
      "type": "function",
      "constant": true
    },
    {
      "inputs": [
        {
          "internalType": "uint256",
          "name": "tokenId",
          "type": "uint256"
        }
      ],
      "name": "ownerOf",
      "outputs": [
        {
          "internalType": "address",
          "name": "",
          "type": "address"
        }
      ],
      "stateMutability": "view",
      "type": "function",
      "constant": true
    },
    {
      "inputs": [],
      "name": "renounceOwnership",
      "outputs": [],
      "stateMutability": "nonpayable",
      "type": "function"
    },
    {
      "inputs": [
        {
          "internalType": "address",
          "name": "from",
          "type": "address"
        },
        {
          "internalType": "address",
          "name": "to",
          "type": "address"
        },
        {
          "internalType": "uint256",
          "name": "tokenId",
          "type": "uint256"
        }
      ],
      "name": "safeTransferFrom",
      "outputs": [],
      "stateMutability": "nonpayable",
      "type": "function"
    },
    {
      "inputs": [
        {
          "internalType": "address",
          "name": "from",
          "type": "address"
        },
        {
          "internalType": "address",
          "name": "to",
          "type": "address"
        },
        {
          "internalType": "uint256",
          "name": "tokenId",
          "type": "uint256"
        },
        {
          "internalType": "bytes",
          "name": "data",
          "type": "bytes"
        }
      ],
      "name": "safeTransferFrom",
      "outputs": [],
      "stateMutability": "nonpayable",
      "type": "function"
    },
    {
      "inputs": [
        {
          "internalType": "address",
          "name": "operator",
          "type": "address"
        },
        {
          "internalType": "bool",
          "name": "approved",
          "type": "bool"
        }
      ],
      "name": "setApprovalForAll",
      "outputs": [],
      "stateMutability": "nonpayable",
      "type": "function"
    },
    {
      "inputs": [
        {
          "internalType": "bytes4",
          "name": "interfaceId",
          "type": "bytes4"
        }
      ],
      "name": "supportsInterface",
      "outputs": [
        {
          "internalType": "bool",
          "name": "",
          "type": "bool"
        }
      ],
      "stateMutability": "view",
      "type": "function",
      "constant": true
    },
    {
      "inputs": [],
      "name": "symbol",
      "outputs": [
        {
          "internalType": "string",
          "name": "",
          "type": "string"
        }
      ],
      "stateMutability": "view",
      "type": "function",
      "constant": true
    },
    {
      "inputs": [
        {
          "internalType": "uint256",
          "name": "index",
          "type": "uint256"
        }
      ],
      "name": "tokenByIndex",
      "outputs": [
        {
          "internalType": "uint256",
          "name": "",
          "type": "uint256"
        }
      ],
      "stateMutability": "view",
      "type": "function",
      "constant": true
    },
    {
      "inputs": [
        {
          "internalType": "address",
          "name": "owner",
          "type": "address"
        },
        {
          "internalType": "uint256",
          "name": "index",
          "type": "uint256"
        }
      ],
      "name": "tokenOfOwnerByIndex",
      "outputs": [
        {
          "internalType": "uint256",
          "name": "",
          "type": "uint256"
        }
      ],
      "stateMutability": "view",
      "type": "function",
      "constant": true
    },
    {
      "inputs": [
        {
          "internalType": "uint256",
          "name": "tokenId",
          "type": "uint256"
        }
      ],
      "name": "tokenURI",
      "outputs": [
        {
          "internalType": "string",
          "name": "",
          "type": "string"
        }
      ],
      "stateMutability": "view",
      "type": "function",
      "constant": true
    },
    {
      "inputs": [],
      "name": "totalSupply",
      "outputs": [
        {
          "internalType": "uint256",
          "name": "",
          "type": "uint256"
        }
      ],
      "stateMutability": "view",
      "type": "function",
      "constant": true
    },
    {
      "inputs": [
        {
          "internalType": "address",
          "name": "from",
          "type": "address"
        },
        {
          "internalType": "address",
          "name": "to",
          "type": "address"
        },
        {
          "internalType": "uint256",
          "name": "tokenId",
          "type": "uint256"
        }
      ],
      "name": "transferFrom",
      "outputs": [],
      "stateMutability": "nonpayable",
      "type": "function"
    },
    {
      "inputs": [
        {
          "internalType": "address",
          "name": "newOwner",
          "type": "address"
        }
      ],
      "name": "transferOwnership",
      "outputs": [],
      "stateMutability": "nonpayable",
      "type": "function"
    },
    {
      "inputs": [
        {
          "internalType": "string",
          "name": "_baseTokenURI",
          "type": "string"
        }
      ],
      "name": "setBaseURI",
      "outputs": [],
      "stateMutability": "nonpayable",
      "type": "function"
    },
    {
      "inputs": [
        {
          "internalType": "string",
          "name": "contractURI_",
          "type": "string"
        }
      ],
      "name": "setContractURI",
      "outputs": [],
      "stateMutability": "nonpayable",
      "type": "function"
    },
    {
      "inputs": [],
      "name": "contractURI",
      "outputs": [
        {
          "internalType": "string",
          "name": "",
          "type": "string"
        }
      ],
      "stateMutability": "view",
      "type": "function",
      "constant": true
    },
    {
      "inputs": [
        {
          "internalType": "uint256",
          "name": "_count",
          "type": "uint256"
        }
      ],
      "name": "mintNFTs",
      "outputs": [],
      "stateMutability": "payable",
      "type": "function",
      "payable": true
    },
    {
      "inputs": [
        {
          "internalType": "address",
          "name": "_owner",
          "type": "address"
        }
      ],
      "name": "tokensOfOwner",
      "outputs": [
        {
          "internalType": "uint256[]",
          "name": "",
          "type": "uint256[]"
        }
      ],
      "stateMutability": "view",
      "type": "function",
      "constant": true
    },
    {
      "inputs": [],
      "name": "withdraw",
      "outputs": [],
      "stateMutability": "payable",
      "type": "function",
      "payable": true
    },
    {
      "inputs": [
        {
          "internalType": "uint256",
          "name": "_count",
          "type": "uint256"
        }
      ],
      "name": "reserveNFTs",
      "outputs": [],
      "stateMutability": "nonpayable",
      "type": "function"
    }
  ],
  "bytecode": "0x60806040523480156200001157600080fd5b50604051620046433803806200464383398181016040528101906200003791906200053a565b8585816000908051906020019062000051929190620002b2565b5080600190805190602001906200006a929190620002b2565b5050506200008d62000081620000d160201b60201c565b620000d960201b60201c565b6200009e876200019f60201b60201c565b620000af84620001cb60201b60201c565b82600c8190555081600d8190555080600e819055505050505050505062000750565b600033905090565b6000600a60009054906101000a900473ffffffffffffffffffffffffffffffffffffffff16905081600a60006101000a81548173ffffffffffffffffffffffffffffffffffffffff021916908373ffffffffffffffffffffffffffffffffffffffff1602179055508173ffffffffffffffffffffffffffffffffffffffff168173ffffffffffffffffffffffffffffffffffffffff167f8be0079c531659141344cd1fd0a4f28419497f9722a3daafe3b4186f6b6457e060405160405180910390a35050565b620001af620001f760201b60201c565b80600f9080519060200190620001c7929190620002b2565b5050565b620001db620001f760201b60201c565b8060109080519060200190620001f3929190620002b2565b5050565b62000207620000d160201b60201c565b73ffffffffffffffffffffffffffffffffffffffff166200022d6200028860201b60201c565b73ffffffffffffffffffffffffffffffffffffffff161462000286576040517f08c379a00000000000000000000000000000000000000000000000000000000081526004016200027d90620006ca565b60405180910390fd5b565b6000600a60009054906101000a900473ffffffffffffffffffffffffffffffffffffffff16905090565b828054620002c0906200071b565b90600052602060002090601f016020900481019282620002e4576000855562000330565b82601f10620002ff57805160ff191683800117855562000330565b8280016001018555821562000330579182015b828111156200032f57825182559160200191906001019062000312565b5b5090506200033f919062000343565b5090565b5b808211156200035e57600081600090555060010162000344565b5090565b6000604051905090565b600080fd5b600080fd5b600080fd5b600080fd5b6000601f19601f8301169050919050565b7f4e487b7100000000000000000000000000000000000000000000000000000000600052604160045260246000fd5b620003cb8262000380565b810181811067ffffffffffffffff82111715620003ed57620003ec62000391565b5b80604052505050565b60006200040262000362565b9050620004108282620003c0565b919050565b600067ffffffffffffffff82111562000433576200043262000391565b5b6200043e8262000380565b9050602081019050919050565b60005b838110156200046b5780820151818401526020810190506200044e565b838111156200047b576000848401525b50505050565b600062000498620004928462000415565b620003f6565b905082815260208101848484011115620004b757620004b66200037b565b5b620004c48482856200044b565b509392505050565b600082601f830112620004e457620004e362000376565b5b8151620004f684826020860162000481565b91505092915050565b6000819050919050565b6200051481620004ff565b81146200052057600080fd5b50565b600081519050620005348162000509565b92915050565b600080600080600080600060e0888a0312156200055c576200055b6200036c565b5b600088015167ffffffffffffffff8111156200057d576200057c62000371565b5b6200058b8a828b01620004cc565b975050602088015167ffffffffffffffff811115620005af57620005ae62000371565b5b620005bd8a828b01620004cc565b965050604088015167ffffffffffffffff811115620005e157620005e062000371565b5b620005ef8a828b01620004cc565b955050606088015167ffffffffffffffff81111562000613576200061262000371565b5b620006218a828b01620004cc565b9450506080620006348a828b0162000523565b93505060a0620006478a828b0162000523565b92505060c06200065a8a828b0162000523565b91505092959891949750929550565b600082825260208201905092915050565b7f4f776e61626c653a2063616c6c6572206973206e6f7420746865206f776e6572600082015250565b6000620006b260208362000669565b9150620006bf826200067a565b602082019050919050565b60006020820190508181036000830152620006e581620006a3565b9050919050565b7f4e487b7100000000000000000000000000000000000000000000000000000000600052602260045260246000fd5b600060028204905060018216806200073457607f821691505b6020821081036200074a5762000749620006ec565b5b50919050565b613ee380620007606000396000f3fe6080604052600436106101cd5760003560e01c806370a08231116100f7578063a22cb46511610095578063d547cfb711610064578063d547cfb71461066c578063e8a3d48514610697578063e985e9c5146106c2578063f2fde38b146106ff576101cd565b8063a22cb465146105b4578063b88d4fde146105dd578063bc7df09114610606578063c87b56dd1461062f576101cd565b80638d859f3e116100d15780638d859f3e1461050a5780638da5cb5b14610535578063938e3d7b1461056057806395d89b4114610589576101cd565b806370a0823114610479578063715018a6146104b65780638462151c146104cd576101cd565b80632f745c591161016f57806342842e0e1161013e57806342842e0e146103ad5780634f6ccce7146103d657806355f804b3146104135780636352211e1461043c576101cd565b80632f745c591461031f57806332cb6b0c1461035c5780633b4b1381146103875780633ccfd60b146103a3576101cd565b8063095ea7b3116101ab578063095ea7b31461027757806309d42b30146102a057806318160ddd146102cb57806323b872dd146102f6576101cd565b806301ffc9a7146101d257806306fdde031461020f578063081812fc1461023a575b600080fd5b3480156101de57600080fd5b506101f960048036038101906101f491906128b5565b610728565b60405161020691906128fd565b60405180910390f35b34801561021b57600080fd5b506102246107a2565b60405161023191906129b1565b60405180910390f35b34801561024657600080fd5b50610261600480360381019061025c9190612a09565b610834565b60405161026e9190612a77565b60405180910390f35b34801561028357600080fd5b5061029e60048036038101906102999190612abe565b61087a565b005b3480156102ac57600080fd5b506102b5610991565b6040516102c29190612b0d565b60405180910390f35b3480156102d757600080fd5b506102e0610997565b6040516102ed9190612b0d565b60405180910390f35b34801561030257600080fd5b5061031d60048036038101906103189190612b28565b6109a4565b005b34801561032b57600080fd5b5061034660048036038101906103419190612abe565b610a04565b6040516103539190612b0d565b60405180910390f35b34801561036857600080fd5b50610371610aa9565b60405161037e9190612b0d565b60405180910390f35b6103a1600480360381019061039c9190612a09565b610aaf565b005b6103ab610be7565b005b3480156103b957600080fd5b506103d460048036038101906103cf9190612b28565b610ce7565b005b3480156103e257600080fd5b506103fd60048036038101906103f89190612a09565b610d07565b60405161040a9190612b0d565b60405180910390f35b34801561041f57600080fd5b5061043a60048036038101906104359190612cb0565b610d78565b005b34801561044857600080fd5b50610463600480360381019061045e9190612a09565b610d9a565b6040516104709190612a77565b60405180910390f35b34801561048557600080fd5b506104a0600480360381019061049b9190612cf9565b610e4b565b6040516104ad9190612b0d565b60405180910390f35b3480156104c257600080fd5b506104cb610f02565b005b3480156104d957600080fd5b506104f460048036038101906104ef9190612cf9565b610f16565b6040516105019190612de4565b60405180910390f35b34801561051657600080fd5b5061051f610fc4565b60405161052c9190612b0d565b60405180910390f35b34801561054157600080fd5b5061054a610fca565b6040516105579190612a77565b60405180910390f35b34801561056c57600080fd5b5061058760048036038101906105829190612cb0565b610ff4565b005b34801561059557600080fd5b5061059e611016565b6040516105ab91906129b1565b60405180910390f35b3480156105c057600080fd5b506105db60048036038101906105d69190612e32565b6110a8565b005b3480156105e957600080fd5b5061060460048036038101906105ff9190612f13565b6110be565b005b34801561061257600080fd5b5061062d60048036038101906106289190612a09565b611120565b005b34801561063b57600080fd5b5061065660048036038101906106519190612a09565b6111b7565b60405161066391906129b1565b60405180910390f35b34801561067857600080fd5b5061068161121f565b60405161068e91906129b1565b60405180910390f35b3480156106a357600080fd5b506106ac6112ad565b6040516106b991906129b1565b60405180910390f35b3480156106ce57600080fd5b506106e960048036038101906106e49190612f96565b61133f565b6040516106f691906128fd565b60405180910390f35b34801561070b57600080fd5b5061072660048036038101906107219190612cf9565b6113d3565b005b60007f780e9d63000000000000000000000000000000000000000000000000000000007bffffffffffffffffffffffffffffffffffffffffffffffffffffffff1916827bffffffffffffffffffffffffffffffffffffffffffffffffffffffff1916148061079b575061079a82611456565b5b9050919050565b6060600080546107b190613005565b80601f01602080910402602001604051908101604052809291908181526020018280546107dd90613005565b801561082a5780601f106107ff5761010080835404028352916020019161082a565b820191906000526020600020905b81548152906001019060200180831161080d57829003601f168201915b5050505050905090565b600061083f82611538565b6004600083815260200190815260200160002060009054906101000a900473ffffffffffffffffffffffffffffffffffffffff169050919050565b600061088582610d9a565b90508073ffffffffffffffffffffffffffffffffffffffff168373ffffffffffffffffffffffffffffffffffffffff16036108f5576040517f08c379a00000000000000000000000000000000000000000000000000000000081526004016108ec906130a8565b60405180910390fd5b8073ffffffffffffffffffffffffffffffffffffffff16610914611583565b73ffffffffffffffffffffffffffffffffffffffff16148061094357506109428161093d611583565b61133f565b5b610982576040517f08c379a00000000000000000000000000000000000000000000000000000000081526004016109799061313a565b60405180910390fd5b61098c838361158b565b505050565b600e5481565b6000600880549050905090565b6109b56109af611583565b82611644565b6109f4576040517f08c379a00000000000000000000000000000000000000000000000000000000081526004016109eb906131cc565b60405180910390fd5b6109ff8383836116d9565b505050565b6000610a0f83610e4b565b8210610a50576040517f08c379a0000000000000000000000000000000000000000000000000000000008152600401610a479061325e565b60405180910390fd5b600660008473ffffffffffffffffffffffffffffffffffffffff1673ffffffffffffffffffffffffffffffffffffffff168152602001908152602001600020600083815260200190815260200160002054905092915050565b600c5481565b6000610abb600b61193f565b9050600c54610ad3838361194d90919063ffffffff16565b1115610b14576040517f08c379a0000000000000000000000000000000000000000000000000000000008152600401610b0b906132ca565b60405180910390fd5b600082118015610b265750600e548211155b610b65576040517f08c379a0000000000000000000000000000000000000000000000000000000008152600401610b5c9061335c565b60405180910390fd5b610b7a82600d5461196390919063ffffffff16565b341015610bbc576040517f08c379a0000000000000000000000000000000000000000000000000000000008152600401610bb3906133ee565b60405180910390fd5b60005b82811015610be257610bcf611979565b8080610bda9061343d565b915050610bbf565b505050565b610bef61199e565b600047905060008111610c37576040517f08c379a0000000000000000000000000000000000000000000000000000000008152600401610c2e906134d1565b60405180910390fd5b60003373ffffffffffffffffffffffffffffffffffffffff1682604051610c5d90613522565b60006040518083038185875af1925050503d8060008114610c9a576040519150601f19603f3d011682016040523d82523d6000602084013e610c9f565b606091505b5050905080610ce3576040517f08c379a0000000000000000000000000000000000000000000000000000000008152600401610cda90613583565b60405180910390fd5b5050565b610d02838383604051806020016040528060008152506110be565b505050565b6000610d11610997565b8210610d52576040517f08c379a0000000000000000000000000000000000000000000000000000000008152600401610d4990613615565b60405180910390fd5b60088281548110610d6657610d65613635565b5b90600052602060002001549050919050565b610d8061199e565b80600f9080519060200190610d969291906127a6565b5050565b6000806002600084815260200190815260200160002060009054906101000a900473ffffffffffffffffffffffffffffffffffffffff169050600073ffffffffffffffffffffffffffffffffffffffff168173ffffffffffffffffffffffffffffffffffffffff1603610e42576040517f08c379a0000000000000000000000000000000000000000000000000000000008152600401610e39906136b0565b60405180910390fd5b80915050919050565b60008073ffffffffffffffffffffffffffffffffffffffff168273ffffffffffffffffffffffffffffffffffffffff1603610ebb576040517f08c379a0000000000000000000000000000000000000000000000000000000008152600401610eb290613742565b60405180910390fd5b600360008373ffffffffffffffffffffffffffffffffffffffff1673ffffffffffffffffffffffffffffffffffffffff168152602001908152602001600020549050919050565b610f0a61199e565b610f146000611a1c565b565b60606000610f2383610e4b565b905060008167ffffffffffffffff811115610f4157610f40612b85565b5b604051908082528060200260200182016040528015610f6f5781602001602082028036833780820191505090505b50905060005b82811015610fb957610f878582610a04565b828281518110610f9a57610f99613635565b5b6020026020010181815250508080610fb19061343d565b915050610f75565b508092505050919050565b600d5481565b6000600a60009054906101000a900473ffffffffffffffffffffffffffffffffffffffff16905090565b610ffc61199e565b80601090805190602001906110129291906127a6565b5050565b60606001805461102590613005565b80601f016020809104026020016040519081016040528092919081815260200182805461105190613005565b801561109e5780601f106110735761010080835404028352916020019161109e565b820191906000526020600020905b81548152906001019060200180831161108157829003601f168201915b5050505050905090565b6110ba6110b3611583565b8383611ae2565b5050565b6110cf6110c9611583565b83611644565b61110e576040517f08c379a0000000000000000000000000000000000000000000000000000000008152600401611105906131cc565b60405180910390fd5b61111a84848484611c4e565b50505050565b61112861199e565b6000611134600b61193f565b9050600c5461114c838361194d90919063ffffffff16565b1061118c576040517f08c379a0000000000000000000000000000000000000000000000000000000008152600401611183906137ae565b60405180910390fd5b60005b828110156111b25761119f611979565b80806111aa9061343d565b91505061118f565b505050565b60606111c282611538565b60006111cc611caa565b905060008151116111ec5760405180602001604052806000815250611217565b806111f684611d3c565b60405160200161120792919061380a565b6040516020818303038152906040525b915050919050565b600f805461122c90613005565b80601f016020809104026020016040519081016040528092919081815260200182805461125890613005565b80156112a55780601f1061127a576101008083540402835291602001916112a5565b820191906000526020600020905b81548152906001019060200180831161128857829003601f168201915b505050505081565b6060601080546112bc90613005565b80601f01602080910402602001604051908101604052809291908181526020018280546112e890613005565b80156113355780601f1061130a57610100808354040283529160200191611335565b820191906000526020600020905b81548152906001019060200180831161131857829003601f168201915b5050505050905090565b6000600560008473ffffffffffffffffffffffffffffffffffffffff1673ffffffffffffffffffffffffffffffffffffffff16815260200190815260200160002060008373ffffffffffffffffffffffffffffffffffffffff1673ffffffffffffffffffffffffffffffffffffffff16815260200190815260200160002060009054906101000a900460ff16905092915050565b6113db61199e565b600073ffffffffffffffffffffffffffffffffffffffff168173ffffffffffffffffffffffffffffffffffffffff160361144a576040517f08c379a0000000000000000000000000000000000000000000000000000000008152600401611441906138a0565b60405180910390fd5b61145381611a1c565b50565b60007f80ac58cd000000000000000000000000000000000000000000000000000000007bffffffffffffffffffffffffffffffffffffffffffffffffffffffff1916827bffffffffffffffffffffffffffffffffffffffffffffffffffffffff1916148061152157507f5b5e139f000000000000000000000000000000000000000000000000000000007bffffffffffffffffffffffffffffffffffffffffffffffffffffffff1916827bffffffffffffffffffffffffffffffffffffffffffffffffffffffff1916145b80611531575061153082611e9c565b5b9050919050565b61154181611f06565b611580576040517f08c379a0000000000000000000000000000000000000000000000000000000008152600401611577906136b0565b60405180910390fd5b50565b600033905090565b816004600083815260200190815260200160002060006101000a81548173ffffffffffffffffffffffffffffffffffffffff021916908373ffffffffffffffffffffffffffffffffffffffff160217905550808273ffffffffffffffffffffffffffffffffffffffff166115fe83610d9a565b73ffffffffffffffffffffffffffffffffffffffff167f8c5be1e5ebec7d5bd14f71427d1e84f3dd0314c0f7b2291e5b200ac8c7c3b92560405160405180910390a45050565b60008061165083610d9a565b90508073ffffffffffffffffffffffffffffffffffffffff168473ffffffffffffffffffffffffffffffffffffffff1614806116925750611691818561133f565b5b806116d057508373ffffffffffffffffffffffffffffffffffffffff166116b884610834565b73ffffffffffffffffffffffffffffffffffffffff16145b91505092915050565b8273ffffffffffffffffffffffffffffffffffffffff166116f982610d9a565b73ffffffffffffffffffffffffffffffffffffffff161461174f576040517f08c379a000000000000000000000000000000000000000000000000000000000815260040161174690613932565b60405180910390fd5b600073ffffffffffffffffffffffffffffffffffffffff168273ffffffffffffffffffffffffffffffffffffffff16036117be576040517f08c379a00000000000000000000000000000000000000000000000000000000081526004016117b5906139c4565b60405180910390fd5b6117c9838383611f72565b6117d460008261158b565b6001600360008573ffffffffffffffffffffffffffffffffffffffff1673ffffffffffffffffffffffffffffffffffffffff168152602001908152602001600020600082825461182491906139e4565b925050819055506001600360008473ffffffffffffffffffffffffffffffffffffffff1673ffffffffffffffffffffffffffffffffffffffff168152602001908152602001600020600082825461187b9190613a18565b92505081905550816002600083815260200190815260200160002060006101000a81548173ffffffffffffffffffffffffffffffffffffffff021916908373ffffffffffffffffffffffffffffffffffffffff160217905550808273ffffffffffffffffffffffffffffffffffffffff168473ffffffffffffffffffffffffffffffffffffffff167fddf252ad1be2c89b69c2b068fc378daa952ba7f163c4a11628f55a4df523b3ef60405160405180910390a461193a838383612084565b505050565b600081600001549050919050565b6000818361195b9190613a18565b905092915050565b600081836119719190613a6e565b905092915050565b6000611985600b61193f565b90506119913382612089565b61199b600b6120a7565b50565b6119a6611583565b73ffffffffffffffffffffffffffffffffffffffff166119c4610fca565b73ffffffffffffffffffffffffffffffffffffffff1614611a1a576040517f08c379a0000000000000000000000000000000000000000000000000000000008152600401611a1190613b14565b60405180910390fd5b565b6000600a60009054906101000a900473ffffffffffffffffffffffffffffffffffffffff16905081600a60006101000a81548173ffffffffffffffffffffffffffffffffffffffff021916908373ffffffffffffffffffffffffffffffffffffffff1602179055508173ffffffffffffffffffffffffffffffffffffffff168173ffffffffffffffffffffffffffffffffffffffff167f8be0079c531659141344cd1fd0a4f28419497f9722a3daafe3b4186f6b6457e060405160405180910390a35050565b8173ffffffffffffffffffffffffffffffffffffffff168373ffffffffffffffffffffffffffffffffffffffff1603611b50576040517f08c379a0000000000000000000000000000000000000000000000000000000008152600401611b4790613b80565b60405180910390fd5b80600560008573ffffffffffffffffffffffffffffffffffffffff1673ffffffffffffffffffffffffffffffffffffffff16815260200190815260200160002060008473ffffffffffffffffffffffffffffffffffffffff1673ffffffffffffffffffffffffffffffffffffffff16815260200190815260200160002060006101000a81548160ff0219169083151502179055508173ffffffffffffffffffffffffffffffffffffffff168373ffffffffffffffffffffffffffffffffffffffff167f17307eab39ab6107e8899845ad3d59bd9653f200f220920489ca2b5937696c3183604051611c4191906128fd565b60405180910390a3505050565b611c598484846116d9565b611c65848484846120bd565b611ca4576040517f08c379a0000000000000000000000000000000000000000000000000000000008152600401611c9b90613c12565b60405180910390fd5b50505050565b6060600f8054611cb990613005565b80601f0160208091040260200160405190810160405280929190818152602001828054611ce590613005565b8015611d325780601f10611d0757610100808354040283529160200191611d32565b820191906000526020600020905b815481529060010190602001808311611d1557829003601f168201915b5050505050905090565b606060008203611d83576040518060400160405280600181526020017f30000000000000000000000000000000000000000000000000000000000000008152509050611e97565b600082905060005b60008214611db5578080611d9e9061343d565b915050600a82611dae9190613c61565b9150611d8b565b60008167ffffffffffffffff811115611dd157611dd0612b85565b5b6040519080825280601f01601f191660200182016040528015611e035781602001600182028036833780820191505090505b5090505b60008514611e9057600182611e1c91906139e4565b9150600a85611e2b9190613c92565b6030611e379190613a18565b60f81b818381518110611e4d57611e4c613635565b5b60200101907effffffffffffffffffffffffffffffffffffffffffffffffffffffffffffff1916908160001a905350600a85611e899190613c61565b9450611e07565b8093505050505b919050565b60007f01ffc9a7000000000000000000000000000000000000000000000000000000007bffffffffffffffffffffffffffffffffffffffffffffffffffffffff1916827bffffffffffffffffffffffffffffffffffffffffffffffffffffffff1916149050919050565b60008073ffffffffffffffffffffffffffffffffffffffff166002600084815260200190815260200160002060009054906101000a900473ffffffffffffffffffffffffffffffffffffffff1673ffffffffffffffffffffffffffffffffffffffff1614159050919050565b611f7d838383612244565b600073ffffffffffffffffffffffffffffffffffffffff168373ffffffffffffffffffffffffffffffffffffffff1603611fbf57611fba81612249565b611ffe565b8173ffffffffffffffffffffffffffffffffffffffff168373ffffffffffffffffffffffffffffffffffffffff1614611ffd57611ffc8382612292565b5b5b600073ffffffffffffffffffffffffffffffffffffffff168273ffffffffffffffffffffffffffffffffffffffff16036120405761203b816123ff565b61207f565b8273ffffffffffffffffffffffffffffffffffffffff168273ffffffffffffffffffffffffffffffffffffffff161461207e5761207d82826124d0565b5b5b505050565b505050565b6120a382826040518060200160405280600081525061254f565b5050565b6001816000016000828254019250508190555050565b60006120de8473ffffffffffffffffffffffffffffffffffffffff166125aa565b15612237578373ffffffffffffffffffffffffffffffffffffffff1663150b7a02612107611583565b8786866040518563ffffffff1660e01b81526004016121299493929190613d18565b6020604051808303816000875af192505050801561216557506040513d601f19601f820116820180604052508101906121629190613d79565b60015b6121e7573d8060008114612195576040519150601f19603f3d011682016040523d82523d6000602084013e61219a565b606091505b5060008151036121df576040517f08c379a00000000000000000000000000000000000000000000000000000000081526004016121d690613c12565b60405180910390fd5b805181602001fd5b63150b7a0260e01b7bffffffffffffffffffffffffffffffffffffffffffffffffffffffff1916817bffffffffffffffffffffffffffffffffffffffffffffffffffffffff19161491505061223c565b600190505b949350505050565b505050565b6008805490506009600083815260200190815260200160002081905550600881908060018154018082558091505060019003906000526020600020016000909190919091505550565b6000600161229f84610e4b565b6122a991906139e4565b905060006007600084815260200190815260200160002054905081811461238e576000600660008673ffffffffffffffffffffffffffffffffffffffff1673ffffffffffffffffffffffffffffffffffffffff168152602001908152602001600020600084815260200190815260200160002054905080600660008773ffffffffffffffffffffffffffffffffffffffff1673ffffffffffffffffffffffffffffffffffffffff168152602001908152602001600020600084815260200190815260200160002081905550816007600083815260200190815260200160002081905550505b6007600084815260200190815260200160002060009055600660008573ffffffffffffffffffffffffffffffffffffffff1673ffffffffffffffffffffffffffffffffffffffff16815260200190815260200160002060008381526020019081526020016000206000905550505050565b6000600160088054905061241391906139e4565b905060006009600084815260200190815260200160002054905060006008838154811061244357612442613635565b5b90600052602060002001549050806008838154811061246557612464613635565b5b9060005260206000200181905550816009600083815260200190815260200160002081905550600960008581526020019081526020016000206000905560088054806124b4576124b3613da6565b5b6001900381819060005260206000200160009055905550505050565b60006124db83610e4b565b905081600660008573ffffffffffffffffffffffffffffffffffffffff1673ffffffffffffffffffffffffffffffffffffffff168152602001908152602001600020600083815260200190815260200160002081905550806007600084815260200190815260200160002081905550505050565b61255983836125cd565b61256660008484846120bd565b6125a5576040517f08c379a000000000000000000000000000000000000000000000000000000000815260040161259c90613c12565b60405180910390fd5b505050565b6000808273ffffffffffffffffffffffffffffffffffffffff163b119050919050565b600073ffffffffffffffffffffffffffffffffffffffff168273ffffffffffffffffffffffffffffffffffffffff160361263c576040517f08c379a000000000000000000000000000000000000000000000000000000000815260040161263390613e21565b60405180910390fd5b61264581611f06565b15612685576040517f08c379a000000000000000000000000000000000000000000000000000000000815260040161267c90613e8d565b60405180910390fd5b61269160008383611f72565b6001600360008473ffffffffffffffffffffffffffffffffffffffff1673ffffffffffffffffffffffffffffffffffffffff16815260200190815260200160002060008282546126e19190613a18565b92505081905550816002600083815260200190815260200160002060006101000a81548173ffffffffffffffffffffffffffffffffffffffff021916908373ffffffffffffffffffffffffffffffffffffffff160217905550808273ffffffffffffffffffffffffffffffffffffffff16600073ffffffffffffffffffffffffffffffffffffffff167fddf252ad1be2c89b69c2b068fc378daa952ba7f163c4a11628f55a4df523b3ef60405160405180910390a46127a260008383612084565b5050565b8280546127b290613005565b90600052602060002090601f0160209004810192826127d4576000855561281b565b82601f106127ed57805160ff191683800117855561281b565b8280016001018555821561281b579182015b8281111561281a5782518255916020019190600101906127ff565b5b509050612828919061282c565b5090565b5b8082111561284557600081600090555060010161282d565b5090565b6000604051905090565b600080fd5b600080fd5b60007fffffffff0000000000000000000000000000000000000000000000000000000082169050919050565b6128928161285d565b811461289d57600080fd5b50565b6000813590506128af81612889565b92915050565b6000602082840312156128cb576128ca612853565b5b60006128d9848285016128a0565b91505092915050565b60008115159050919050565b6128f7816128e2565b82525050565b600060208201905061291260008301846128ee565b92915050565b600081519050919050565b600082825260208201905092915050565b60005b83811015612952578082015181840152602081019050612937565b83811115612961576000848401525b50505050565b6000601f19601f8301169050919050565b600061298382612918565b61298d8185612923565b935061299d818560208601612934565b6129a681612967565b840191505092915050565b600060208201905081810360008301526129cb8184612978565b905092915050565b6000819050919050565b6129e6816129d3565b81146129f157600080fd5b50565b600081359050612a03816129dd565b92915050565b600060208284031215612a1f57612a1e612853565b5b6000612a2d848285016129f4565b91505092915050565b600073ffffffffffffffffffffffffffffffffffffffff82169050919050565b6000612a6182612a36565b9050919050565b612a7181612a56565b82525050565b6000602082019050612a8c6000830184612a68565b92915050565b612a9b81612a56565b8114612aa657600080fd5b50565b600081359050612ab881612a92565b92915050565b60008060408385031215612ad557612ad4612853565b5b6000612ae385828601612aa9565b9250506020612af4858286016129f4565b9150509250929050565b612b07816129d3565b82525050565b6000602082019050612b226000830184612afe565b92915050565b600080600060608486031215612b4157612b40612853565b5b6000612b4f86828701612aa9565b9350506020612b6086828701612aa9565b9250506040612b71868287016129f4565b9150509250925092565b600080fd5b600080fd5b7f4e487b7100000000000000000000000000000000000000000000000000000000600052604160045260246000fd5b612bbd82612967565b810181811067ffffffffffffffff82111715612bdc57612bdb612b85565b5b80604052505050565b6000612bef612849565b9050612bfb8282612bb4565b919050565b600067ffffffffffffffff821115612c1b57612c1a612b85565b5b612c2482612967565b9050602081019050919050565b82818337600083830152505050565b6000612c53612c4e84612c00565b612be5565b905082815260208101848484011115612c6f57612c6e612b80565b5b612c7a848285612c31565b509392505050565b600082601f830112612c9757612c96612b7b565b5b8135612ca7848260208601612c40565b91505092915050565b600060208284031215612cc657612cc5612853565b5b600082013567ffffffffffffffff811115612ce457612ce3612858565b5b612cf084828501612c82565b91505092915050565b600060208284031215612d0f57612d0e612853565b5b6000612d1d84828501612aa9565b91505092915050565b600081519050919050565b600082825260208201905092915050565b6000819050602082019050919050565b612d5b816129d3565b82525050565b6000612d6d8383612d52565b60208301905092915050565b6000602082019050919050565b6000612d9182612d26565b612d9b8185612d31565b9350612da683612d42565b8060005b83811015612dd7578151612dbe8882612d61565b9750612dc983612d79565b925050600181019050612daa565b5085935050505092915050565b60006020820190508181036000830152612dfe8184612d86565b905092915050565b612e0f816128e2565b8114612e1a57600080fd5b50565b600081359050612e2c81612e06565b92915050565b60008060408385031215612e4957612e48612853565b5b6000612e5785828601612aa9565b9250506020612e6885828601612e1d565b9150509250929050565b600067ffffffffffffffff821115612e8d57612e8c612b85565b5b612e9682612967565b9050602081019050919050565b6000612eb6612eb184612e72565b612be5565b905082815260208101848484011115612ed257612ed1612b80565b5b612edd848285612c31565b509392505050565b600082601f830112612efa57612ef9612b7b565b5b8135612f0a848260208601612ea3565b91505092915050565b60008060008060808587031215612f2d57612f2c612853565b5b6000612f3b87828801612aa9565b9450506020612f4c87828801612aa9565b9350506040612f5d878288016129f4565b925050606085013567ffffffffffffffff811115612f7e57612f7d612858565b5b612f8a87828801612ee5565b91505092959194509250565b60008060408385031215612fad57612fac612853565b5b6000612fbb85828601612aa9565b9250506020612fcc85828601612aa9565b9150509250929050565b7f4e487b7100000000000000000000000000000000000000000000000000000000600052602260045260246000fd5b6000600282049050600182168061301d57607f821691505b6020821081036130305761302f612fd6565b5b50919050565b7f4552433732313a20617070726f76616c20746f2063757272656e74206f776e6560008201527f7200000000000000000000000000000000000000000000000000000000000000602082015250565b6000613092602183612923565b915061309d82613036565b604082019050919050565b600060208201905081810360008301526130c181613085565b9050919050565b7f4552433732313a20617070726f76652063616c6c6572206973206e6f7420746f60008201527f6b656e206f776e6572206e6f7220617070726f76656420666f7220616c6c0000602082015250565b6000613124603e83612923565b915061312f826130c8565b604082019050919050565b6000602082019050818103600083015261315381613117565b9050919050565b7f4552433732313a2063616c6c6572206973206e6f7420746f6b656e206f776e6560008201527f72206e6f7220617070726f766564000000000000000000000000000000000000602082015250565b60006131b6602e83612923565b91506131c18261315a565b604082019050919050565b600060208201905081810360008301526131e5816131a9565b9050919050565b7f455243373231456e756d657261626c653a206f776e657220696e646578206f7560008201527f74206f6620626f756e6473000000000000000000000000000000000000000000602082015250565b6000613248602b83612923565b9150613253826131ec565b604082019050919050565b600060208201905081810360008301526132778161323b565b9050919050565b7f5468697320636f6c6c656374696f6e20697320736f6c64206f75742100000000600082015250565b60006132b4601c83612923565b91506132bf8261327e565b602082019050919050565b600060208201905081810360008301526132e3816132a7565b9050919050565b7f596f75206861766520726563656976656420746865206d6178696d756d20616d60008201527f6f756e74206f66204e46547320616c6c6f7765642e0000000000000000000000602082015250565b6000613346603583612923565b9150613351826132ea565b604082019050919050565b6000602082019050818103600083015261337581613339565b9050919050565b7f4e6f7420656e6f75676820657468657220746f207075726368617365204e465460008201527f732e000000000000000000000000000000000000000000000000000000000000602082015250565b60006133d8602283612923565b91506133e38261337c565b604082019050919050565b60006020820190508181036000830152613407816133cb565b9050919050565b7f4e487b7100000000000000000000000000000000000000000000000000000000600052601160045260246000fd5b6000613448826129d3565b91507fffffffffffffffffffffffffffffffffffffffffffffffffffffffffffffffff820361347a5761347961340e565b5b600182019050919050565b7f4e6f206574686572206c65667420746f20776974686472617700000000000000600082015250565b60006134bb601983612923565b91506134c682613485565b602082019050919050565b600060208201905081810360008301526134ea816134ae565b9050919050565b600081905092915050565b50565b600061350c6000836134f1565b9150613517826134fc565b600082019050919050565b600061352d826134ff565b9150819050919050565b7f5472616e73666572206661696c65642e00000000000000000000000000000000600082015250565b600061356d601083612923565b915061357882613537565b602082019050919050565b6000602082019050818103600083015261359c81613560565b9050919050565b7f455243373231456e756d657261626c653a20676c6f62616c20696e646578206f60008201527f7574206f6620626f756e64730000000000000000000000000000000000000000602082015250565b60006135ff602c83612923565b915061360a826135a3565b604082019050919050565b6000602082019050818103600083015261362e816135f2565b9050919050565b7f4e487b7100000000000000000000000000000000000000000000000000000000600052603260045260246000fd5b7f4552433732313a20696e76616c696420746f6b656e2049440000000000000000600082015250565b600061369a601883612923565b91506136a582613664565b602082019050919050565b600060208201905081810360008301526136c98161368d565b9050919050565b7f4552433732313a2061646472657373207a65726f206973206e6f74206120766160008201527f6c6964206f776e65720000000000000000000000000000000000000000000000602082015250565b600061372c602983612923565b9150613737826136d0565b604082019050919050565b6000602082019050818103600083015261375b8161371f565b9050919050565b7f4e6f7420656e6f756768204e465473206c65667420746f207265736572766500600082015250565b6000613798601f83612923565b91506137a382613762565b602082019050919050565b600060208201905081810360008301526137c78161378b565b9050919050565b600081905092915050565b60006137e482612918565b6137ee81856137ce565b93506137fe818560208601612934565b80840191505092915050565b600061381682856137d9565b915061382282846137d9565b91508190509392505050565b7f4f776e61626c653a206e6577206f776e657220697320746865207a65726f206160008201527f6464726573730000000000000000000000000000000000000000000000000000602082015250565b600061388a602683612923565b91506138958261382e565b604082019050919050565b600060208201905081810360008301526138b98161387d565b9050919050565b7f4552433732313a207472616e736665722066726f6d20696e636f72726563742060008201527f6f776e6572000000000000000000000000000000000000000000000000000000602082015250565b600061391c602583612923565b9150613927826138c0565b604082019050919050565b6000602082019050818103600083015261394b8161390f565b9050919050565b7f4552433732313a207472616e7366657220746f20746865207a65726f2061646460008201527f7265737300000000000000000000000000000000000000000000000000000000602082015250565b60006139ae602483612923565b91506139b982613952565b604082019050919050565b600060208201905081810360008301526139dd816139a1565b9050919050565b60006139ef826129d3565b91506139fa836129d3565b925082821015613a0d57613a0c61340e565b5b828203905092915050565b6000613a23826129d3565b9150613a2e836129d3565b9250827fffffffffffffffffffffffffffffffffffffffffffffffffffffffffffffffff03821115613a6357613a6261340e565b5b828201905092915050565b6000613a79826129d3565b9150613a84836129d3565b9250817fffffffffffffffffffffffffffffffffffffffffffffffffffffffffffffffff0483118215151615613abd57613abc61340e565b5b828202905092915050565b7f4f776e61626c653a2063616c6c6572206973206e6f7420746865206f776e6572600082015250565b6000613afe602083612923565b9150613b0982613ac8565b602082019050919050565b60006020820190508181036000830152613b2d81613af1565b9050919050565b7f4552433732313a20617070726f766520746f2063616c6c657200000000000000600082015250565b6000613b6a601983612923565b9150613b7582613b34565b602082019050919050565b60006020820190508181036000830152613b9981613b5d565b9050919050565b7f4552433732313a207472616e7366657220746f206e6f6e20455243373231526560008201527f63656976657220696d706c656d656e7465720000000000000000000000000000602082015250565b6000613bfc603283612923565b9150613c0782613ba0565b604082019050919050565b60006020820190508181036000830152613c2b81613bef565b9050919050565b7f4e487b7100000000000000000000000000000000000000000000000000000000600052601260045260246000fd5b6000613c6c826129d3565b9150613c77836129d3565b925082613c8757613c86613c32565b5b828204905092915050565b6000613c9d826129d3565b9150613ca8836129d3565b925082613cb857613cb7613c32565b5b828206905092915050565b600081519050919050565b600082825260208201905092915050565b6000613cea82613cc3565b613cf48185613cce565b9350613d04818560208601612934565b613d0d81612967565b840191505092915050565b6000608082019050613d2d6000830187612a68565b613d3a6020830186612a68565b613d476040830185612afe565b8181036060830152613d598184613cdf565b905095945050505050565b600081519050613d7381612889565b92915050565b600060208284031215613d8f57613d8e612853565b5b6000613d9d84828501613d64565b91505092915050565b7f4e487b7100000000000000000000000000000000000000000000000000000000600052603160045260246000fd5b7f4552433732313a206d696e7420746f20746865207a65726f2061646472657373600082015250565b6000613e0b602083612923565b9150613e1682613dd5565b602082019050919050565b60006020820190508181036000830152613e3a81613dfe565b9050919050565b7f4552433732313a20746f6b656e20616c7265616479206d696e74656400000000600082015250565b6000613e77601c83612923565b9150613e8282613e41565b602082019050919050565b60006020820190508181036000830152613ea681613e6a565b905091905056fea26469706673582212208658eab77273be481f830471e67ab59f1c9b072a8470be28fc530d781659529b64736f6c634300080d0033",
  "immutableReferences": {},
  "source": "//SPDX-License-Identifier: MIT\npragma solidity ^0.8.13;\n\nimport \"@openzeppelin/contracts/utils/Counters.sol\";\nimport \"@openzeppelin/contracts/access/Ownable.sol\";\nimport \"@openzeppelin/contracts/utils/math/SafeMath.sol\";\nimport \"@openzeppelin/contracts/token/ERC721/extensions/ERC721Enumerable.sol\";\nimport \"@openzeppelin/contracts/utils/Base64.sol\";\n\ncontract NFTCollection is ERC721Enumerable, Ownable {\n    using SafeMath for uint256;\n    using Counters for Counters.Counter;\n\n    Counters.Counter private _tokenIds;\n    // The max number of NFTs in the collection\n    uint public MAX_SUPPLY; // = 10;\n    // The mint price for the collection\n    uint public PRICE; // = 0.00001 ether;\n    // The max number of mints per wallet\n    uint public MAX_PER_MINT; // = 5;\n\n    string public baseTokenURI;\n    string private _contractURI;\n\n    constructor(\n        string memory baseURI,\n        string memory name,\n        string memory symbol,\n        string memory __contractURI,\n        uint max_supply,\n        uint price,\n        uint max_per_mint\n    ) ERC721(name, symbol) {\n        setBaseURI(baseURI);\n        setContractURI(__contractURI);\n        MAX_SUPPLY = max_supply;\n        PRICE = price;\n        MAX_PER_MINT = max_per_mint;\n    }\n\n    function _baseURI() internal view virtual override returns (string memory) {\n        return baseTokenURI;\n    }\n\n    function setBaseURI(string memory _baseTokenURI) public onlyOwner {\n        baseTokenURI = _baseTokenURI;\n    }\n\n    function setContractURI(string memory contractURI_) public onlyOwner {\n        _contractURI = contractURI_;\n        \n    }\n\n    function contractURI() public view returns (string memory) {\n        return _contractURI;\n    }\n\n    function mintNFTs(uint _count) public payable {\n        uint totalMinted = _tokenIds.current();\n\n        require(\n            totalMinted.add(_count) <= MAX_SUPPLY,\n            \"This collection is sold out!\"\n        );\n        require(\n            _count > 0 && _count <= MAX_PER_MINT,\n            \"You have received the maximum amount of NFTs allowed.\"\n        );\n        require(\n            msg.value >= PRICE.mul(_count),\n            \"Not enough ether to purchase NFTs.\"\n        );\n\n        for (uint i = 0; i < _count; i++) {\n            _mintSingleNFT();\n        }\n    }\n\n    function _mintSingleNFT() private {\n        uint newTokenID = _tokenIds.current();\n        _safeMint(msg.sender, newTokenID);\n        _tokenIds.increment();\n    }\n\n    // Returns the ids of the NFTs owned by the wallet address\n    function tokensOfOwner(address _owner)\n        external\n        view\n        returns (uint[] memory)\n    {\n        uint tokenCount = balanceOf(_owner);\n        uint[] memory tokensId = new uint256[](tokenCount);\n\n        for (uint i = 0; i < tokenCount; i++) {\n            tokensId[i] = tokenOfOwnerByIndex(_owner, i);\n        }\n        return tokensId;\n    }\n\n    // Withdraw the ether in the contract\n    function withdraw() public payable onlyOwner {\n        uint balance = address(this).balance;\n        require(balance > 0, \"No ether left to withdraw\");\n\n        (bool success, ) = (msg.sender).call{value: balance}(\"\");\n        require(success, \"Transfer failed.\");\n    }\n\n    // Reserve NFTs only for owner to mint for free\n    function reserveNFTs(uint _count) public onlyOwner {\n        uint totalMinted = _tokenIds.current();\n\n        require(\n            totalMinted.add(_count) < MAX_SUPPLY,\n            \"Not enough NFTs left to reserve\"\n        );\n\n        for (uint i = 0; i < _count; i++) {\n            _mintSingleNFT();\n        }\n    }\n}\n",
  "sourcePath": "/home/jumaru/crypt/solidity-train/nft-box/contracts/NFTCollection.sol",
  "compiler": {
    "name": "solc",
    "version": "0.8.13+commit.abaa5c0e.Emscripten.clang"
  },
  "schemaVersion": "3.4.10",
  "updatedAt": "2022-11-03T21:07:30.980Z",
  "networkType": "ethereum",
  "devdoc": {
    "kind": "dev",
    "methods": {
      "approve(address,uint256)": {
        "details": "See {IERC721-approve}."
      },
      "balanceOf(address)": {
        "details": "See {IERC721-balanceOf}."
      },
      "getApproved(uint256)": {
        "details": "See {IERC721-getApproved}."
      },
      "isApprovedForAll(address,address)": {
        "details": "See {IERC721-isApprovedForAll}."
      },
      "name()": {
        "details": "See {IERC721Metadata-name}."
      },
      "owner()": {
        "details": "Returns the address of the current owner."
      },
      "ownerOf(uint256)": {
        "details": "See {IERC721-ownerOf}."
      },
      "renounceOwnership()": {
        "details": "Leaves the contract without owner. It will not be possible to call `onlyOwner` functions anymore. Can only be called by the current owner. NOTE: Renouncing ownership will leave the contract without an owner, thereby removing any functionality that is only available to the owner."
      },
      "safeTransferFrom(address,address,uint256)": {
        "details": "See {IERC721-safeTransferFrom}."
      },
      "safeTransferFrom(address,address,uint256,bytes)": {
        "details": "See {IERC721-safeTransferFrom}."
      },
      "setApprovalForAll(address,bool)": {
        "details": "See {IERC721-setApprovalForAll}."
      },
      "supportsInterface(bytes4)": {
        "details": "See {IERC165-supportsInterface}."
      },
      "symbol()": {
        "details": "See {IERC721Metadata-symbol}."
      },
      "tokenByIndex(uint256)": {
        "details": "See {IERC721Enumerable-tokenByIndex}."
      },
      "tokenOfOwnerByIndex(address,uint256)": {
        "details": "See {IERC721Enumerable-tokenOfOwnerByIndex}."
      },
      "tokenURI(uint256)": {
        "details": "See {IERC721Metadata-tokenURI}."
      },
      "totalSupply()": {
        "details": "See {IERC721Enumerable-totalSupply}."
      },
      "transferFrom(address,address,uint256)": {
        "details": "See {IERC721-transferFrom}."
      },
      "transferOwnership(address)": {
        "details": "Transfers ownership of the contract to a new account (`newOwner`). Can only be called by the current owner."
      }
    },
    "version": 1
  },
  "userdoc": {
    "kind": "user",
    "methods": {},
    "version": 1
  }
}